{"abi":[{"type":"constructor","inputs":[],"stateMutability":"nonpayable"},{"type":"function","name":"approve","inputs":[{"name":"to","type":"address","internalType":"address"},{"name":"tokenId","type":"uint256","internalType":"uint256"}],"outputs":[],"stateMutability":"nonpayable"},{"type":"function","name":"balanceOf","inputs":[{"name":"owner","type":"address","internalType":"address"}],"outputs":[{"name":"","type":"uint256","internalType":"uint256"}],"stateMutability":"view"},{"type":"function","name":"getApproved","inputs":[{"name":"tokenId","type":"uint256","internalType":"uint256"}],"outputs":[{"name":"","type":"address","internalType":"address"}],"stateMutability":"view"},{"type":"function","name":"isApprovedForAll","inputs":[{"name":"owner","type":"address","internalType":"address"},{"name":"operator","type":"address","internalType":"address"}],"outputs":[{"name":"","type":"bool","internalType":"bool"}],"stateMutability":"view"},{"type":"function","name":"mint","inputs":[{"name":"to","type":"address","internalType":"address"},{"name":"_voteId","type":"uint256","internalType":"uint256"},{"name":"_description","type":"string","internalType":"string"},{"name":"_yesVotes","type":"uint256","internalType":"uint256"},{"name":"_noVotes","type":"uint256","internalType":"uint256"}],"outputs":[],"stateMutability":"nonpayable"},{"type":"function","name":"name","inputs":[],"outputs":[{"name":"","type":"string","internalType":"string"}],"stateMutability":"view"},{"type":"function","name":"nextTokenId","inputs":[],"outputs":[{"name":"","type":"uint256","internalType":"uint256"}],"stateMutability":"view"},{"type":"function","name":"owner","inputs":[],"outputs":[{"name":"","type":"address","internalType":"address"}],"stateMutability":"view"},{"type":"function","name":"ownerOf","inputs":[{"name":"tokenId","type":"uint256","internalType":"uint256"}],"outputs":[{"name":"","type":"address","internalType":"address"}],"stateMutability":"view"},{"type":"function","name":"renounceOwnership","inputs":[],"outputs":[],"stateMutability":"nonpayable"},{"type":"function","name":"results","inputs":[{"name":"","type":"uint256","internalType":"uint256"}],"outputs":[{"name":"voteId","type":"uint256","internalType":"uint256"},{"name":"description","type":"string","internalType":"string"},{"name":"yesVotes","type":"uint256","internalType":"uint256"},{"name":"noVotes","type":"uint256","internalType":"uint256"}],"stateMutability":"view"},{"type":"function","name":"safeTransferFrom","inputs":[{"name":"from","type":"address","internalType":"address"},{"name":"to","type":"address","internalType":"address"},{"name":"tokenId","type":"uint256","internalType":"uint256"}],"outputs":[],"stateMutability":"nonpayable"},{"type":"function","name":"safeTransferFrom","inputs":[{"name":"from","type":"address","internalType":"address"},{"name":"to","type":"address","internalType":"address"},{"name":"tokenId","type":"uint256","internalType":"uint256"},{"name":"data","type":"bytes","internalType":"bytes"}],"outputs":[],"stateMutability":"nonpayable"},{"type":"function","name":"setApprovalForAll","inputs":[{"name":"operator","type":"address","internalType":"address"},{"name":"approved","type":"bool","internalType":"bool"}],"outputs":[],"stateMutability":"nonpayable"},{"type":"function","name":"supportsInterface","inputs":[{"name":"interfaceId","type":"bytes4","internalType":"bytes4"}],"outputs":[{"name":"","type":"bool","internalType":"bool"}],"stateMutability":"view"},{"type":"function","name":"symbol","inputs":[],"outputs":[{"name":"","type":"string","internalType":"string"}],"stateMutability":"view"},{"type":"function","name":"tokenURI","inputs":[{"name":"tokenId","type":"uint256","internalType":"uint256"}],"outputs":[{"name":"","type":"string","internalType":"string"}],"stateMutability":"view"},{"type":"function","name":"transferFrom","inputs":[{"name":"from","type":"address","internalType":"address"},{"name":"to","type":"address","internalType":"address"},{"name":"tokenId","type":"uint256","internalType":"uint256"}],"outputs":[],"stateMutability":"nonpayable"},{"type":"function","name":"transferOwnership","inputs":[{"name":"newOwner","type":"address","internalType":"address"}],"outputs":[],"stateMutability":"nonpayable"},{"type":"event","name":"Approval","inputs":[{"name":"owner","type":"address","indexed":true,"internalType":"address"},{"name":"approved","type":"address","indexed":true,"internalType":"address"},{"name":"tokenId","type":"uint256","indexed":true,"internalType":"uint256"}],"anonymous":false},{"type":"event","name":"ApprovalForAll","inputs":[{"name":"owner","type":"address","indexed":true,"internalType":"address"},{"name":"operator","type":"address","indexed":true,"internalType":"address"},{"name":"approved","type":"bool","indexed":false,"internalType":"bool"}],"anonymous":false},{"type":"event","name":"OwnershipTransferred","inputs":[{"name":"previousOwner","type":"address","indexed":true,"internalType":"address"},{"name":"newOwner","type":"address","indexed":true,"internalType":"address"}],"anonymous":false},{"type":"event","name":"Transfer","inputs":[{"name":"from","type":"address","indexed":true,"internalType":"address"},{"name":"to","type":"address","indexed":true,"internalType":"address"},{"name":"tokenId","type":"uint256","indexed":true,"internalType":"uint256"}],"anonymous":false},{"type":"error","name":"ERC721IncorrectOwner","inputs":[{"name":"sender","type":"address","internalType":"address"},{"name":"tokenId","type":"uint256","internalType":"uint256"},{"name":"owner","type":"address","internalType":"address"}]},{"type":"error","name":"ERC721InsufficientApproval","inputs":[{"name":"operator","type":"address","internalType":"address"},{"name":"tokenId","type":"uint256","internalType":"uint256"}]},{"type":"error","name":"ERC721InvalidApprover","inputs":[{"name":"approver","type":"address","internalType":"address"}]},{"type":"error","name":"ERC721InvalidOperator","inputs":[{"name":"operator","type":"address","internalType":"address"}]},{"type":"error","name":"ERC721InvalidOwner","inputs":[{"name":"owner","type":"address","internalType":"address"}]},{"type":"error","name":"ERC721InvalidReceiver","inputs":[{"name":"receiver","type":"address","internalType":"address"}]},{"type":"error","name":"ERC721InvalidSender","inputs":[{"name":"sender","type":"address","internalType":"address"}]},{"type":"error","name":"ERC721NonexistentToken","inputs":[{"name":"tokenId","type":"uint256","internalType":"uint256"}]},{"type":"error","name":"OwnableInvalidOwner","inputs":[{"name":"owner","type":"address","internalType":"address"}]},{"type":"error","name":"OwnableUnauthorizedAccount","inputs":[{"name":"account","type":"address","internalType":"address"}]}],"bytecode":{"object":"0x608060405234801561000f575f5ffd5b50336040518060400160405280600f81526020017f566f74696e67526573756c744e465400000000000000000000000000000000008152506040518060400160405280600581526020017f56524e4654000000000000000000000000000000000000000000000000000000815250815f908161008b9190610423565b50806001908161009b9190610423565b5050505f73ffffffffffffffffffffffffffffffffffffffff168173ffffffffffffffffffffffffffffffffffffffff160361010e575f6040517f1e4fbdf70000000000000000000000000000000000000000000000000000000081526004016101059190610531565b60405180910390fd5b61011d8161012360201b60201c565b5061054a565b5f60065f9054906101000a900473ffffffffffffffffffffffffffffffffffffffff1690508160065f6101000a81548173ffffffffffffffffffffffffffffffffffffffff021916908373ffffffffffffffffffffffffffffffffffffffff1602179055508173ffffffffffffffffffffffffffffffffffffffff168173ffffffffffffffffffffffffffffffffffffffff167f8be0079c531659141344cd1fd0a4f28419497f9722a3daafe3b4186f6b6457e060405160405180910390a35050565b5f81519050919050565b7f4e487b71000000000000000000000000000000000000000000000000000000005f52604160045260245ffd5b7f4e487b71000000000000000000000000000000000000000000000000000000005f52602260045260245ffd5b5f600282049050600182168061026157607f821691505b6020821081036102745761027361021d565b5b50919050565b5f819050815f5260205f209050919050565b5f6020601f8301049050919050565b5f82821b905092915050565b5f600883026102d67fffffffffffffffffffffffffffffffffffffffffffffffffffffffffffffffff8261029b565b6102e0868361029b565b95508019841693508086168417925050509392505050565b5f819050919050565b5f819050919050565b5f61032461031f61031a846102f8565b610301565b6102f8565b9050919050565b5f819050919050565b61033d8361030a565b6103516103498261032b565b8484546102a7565b825550505050565b5f5f905090565b610368610359565b610373818484610334565b505050565b5b818110156103965761038b5f82610360565b600181019050610379565b5050565b601f8211156103db576103ac8161027a565b6103b58461028c565b810160208510156103c4578190505b6103d86103d08561028c565b830182610378565b50505b505050565b5f82821c905092915050565b5f6103fb5f19846008026103e0565b1980831691505092915050565b5f61041383836103ec565b9150826002028217905092915050565b61042c826101e6565b67ffffffffffffffff811115610445576104446101f0565b5b61044f825461024a565b61045a82828561039a565b5f60209050601f83116001811461048b575f8415610479578287015190505b6104838582610408565b8655506104ea565b601f1984166104998661027a565b5f5b828110156104c05784890151825560018201915060208501945060208101905061049b565b868310156104dd57848901516104d9601f8916826103ec565b8355505b6001600288020188555050505b505050505050565b5f73ffffffffffffffffffffffffffffffffffffffff82169050919050565b5f61051b826104f2565b9050919050565b61052b81610511565b82525050565b5f6020820190506105445f830184610522565b92915050565b612579806105575f395ff3fe608060405234801561000f575f5ffd5b506004361061011f575f3560e01c8063715018a6116100ab578063b88d4fde1161006f578063b88d4fde14610308578063c87b56dd14610324578063e8e7e53914610354578063e985e9c514610370578063f2fde38b146103a05761011f565b8063715018a61461028857806375794a3c146102925780638da5cb5b146102b057806395d89b41146102ce578063a22cb465146102ec5761011f565b80631b0c27da116100f25780631b0c27da146101bd57806323b872dd146101f057806342842e0e1461020c5780636352211e1461022857806370a08231146102585761011f565b806301ffc9a71461012357806306fdde0314610153578063081812fc14610171578063095ea7b3146101a1575b5f5ffd5b61013d600480360381019061013891906119c6565b6103bc565b60405161014a9190611a0b565b60405180910390f35b61015b61049d565b6040516101689190611a94565b60405180910390f35b61018b60048036038101906101869190611ae7565b61052c565b6040516101989190611b51565b60405180910390f35b6101bb60048036038101906101b69190611b94565b610547565b005b6101d760048036038101906101d29190611ae7565b61055d565b6040516101e79493929190611be1565b60405180910390f35b61020a60048036038101906102059190611c2b565b61060f565b005b61022660048036038101906102219190611c2b565b61070e565b005b610242600480360381019061023d9190611ae7565b61072d565b60405161024f9190611b51565b60405180910390f35b610272600480360381019061026d9190611c7b565b61073e565b60405161027f9190611ca6565b60405180910390f35b6102906107f4565b005b61029a610807565b6040516102a79190611ca6565b60405180910390f35b6102b861080d565b6040516102c59190611b51565b60405180910390f35b6102d6610835565b6040516102e39190611a94565b60405180910390f35b61030660048036038101906103019190611ce9565b6108c5565b005b610322600480360381019061031d9190611e53565b6108db565b005b61033e60048036038101906103399190611ae7565b610900565b60405161034b9190611a94565b60405180910390f35b61036e60048036038101906103699190611f71565b610966565b005b61038a60048036038101906103859190612004565b610a04565b6040516103979190611a0b565b60405180910390f35b6103ba60048036038101906103b59190611c7b565b610a92565b005b5f7f80ac58cd000000000000000000000000000000000000000000000000000000007bffffffffffffffffffffffffffffffffffffffffffffffffffffffff1916827bffffffffffffffffffffffffffffffffffffffffffffffffffffffff1916148061048657507f5b5e139f000000000000000000000000000000000000000000000000000000007bffffffffffffffffffffffffffffffffffffffffffffffffffffffff1916827bffffffffffffffffffffffffffffffffffffffffffffffffffffffff1916145b80610496575061049582610b16565b5b9050919050565b60605f80546104ab9061206f565b80601f01602080910402602001604051908101604052809291908181526020018280546104d79061206f565b80156105225780601f106104f957610100808354040283529160200191610522565b820191905f5260205f20905b81548152906001019060200180831161050557829003601f168201915b5050505050905090565b5f61053682610b7f565b5061054082610c05565b9050919050565b6105598282610554610c3e565b610c45565b5050565b6008602052805f5260405f205f91509050805f0154908060010180546105829061206f565b80601f01602080910402602001604051908101604052809291908181526020018280546105ae9061206f565b80156105f95780601f106105d0576101008083540402835291602001916105f9565b820191905f5260205f20905b8154815290600101906020018083116105dc57829003601f168201915b5050505050908060020154908060030154905084565b5f73ffffffffffffffffffffffffffffffffffffffff168273ffffffffffffffffffffffffffffffffffffffff160361067f575f6040517f64a0ae920000000000000000000000000000000000000000000000000000000081526004016106769190611b51565b60405180910390fd5b5f610692838361068d610c3e565b610c57565b90508373ffffffffffffffffffffffffffffffffffffffff168173ffffffffffffffffffffffffffffffffffffffff1614610708578382826040517f64283d7b0000000000000000000000000000000000000000000000000000000081526004016106ff9392919061209f565b60405180910390fd5b50505050565b61072883838360405180602001604052805f8152506108db565b505050565b5f61073782610b7f565b9050919050565b5f5f73ffffffffffffffffffffffffffffffffffffffff168273ffffffffffffffffffffffffffffffffffffffff16036107af575f6040517f89c62b640000000000000000000000000000000000000000000000000000000081526004016107a69190611b51565b60405180910390fd5b60035f8373ffffffffffffffffffffffffffffffffffffffff1673ffffffffffffffffffffffffffffffffffffffff1681526020019081526020015f20549050919050565b6107fc610e62565b6108055f610ee9565b565b60075481565b5f60065f9054906101000a900473ffffffffffffffffffffffffffffffffffffffff16905090565b6060600180546108449061206f565b80601f01602080910402602001604051908101604052809291908181526020018280546108709061206f565b80156108bb5780601f10610892576101008083540402835291602001916108bb565b820191905f5260205f20905b81548152906001019060200180831161089e57829003601f168201915b5050505050905090565b6108d76108d0610c3e565b8383610fac565b5050565b6108e684848461060f565b6108fa6108f1610c3e565b85858585611115565b50505050565b606061090b82610b7f565b505f6109156112c1565b90505f8151116109335760405180602001604052805f81525061095e565b8061093d846112d7565b60405160200161094e92919061210e565b6040516020818303038152906040525b915050919050565b61096e610e62565b5f600754905060075f8154809291906109869061215e565b919050555061099586826113a1565b60405180608001604052808681526020018581526020018481526020018381525060085f8381526020019081526020015f205f820151815f015560208201518160010190816109e49190612345565b506040820151816002015560608201518160030155905050505050505050565b5f60055f8473ffffffffffffffffffffffffffffffffffffffff1673ffffffffffffffffffffffffffffffffffffffff1681526020019081526020015f205f8373ffffffffffffffffffffffffffffffffffffffff1673ffffffffffffffffffffffffffffffffffffffff1681526020019081526020015f205f9054906101000a900460ff16905092915050565b610a9a610e62565b5f73ffffffffffffffffffffffffffffffffffffffff168173ffffffffffffffffffffffffffffffffffffffff1603610b0a575f6040517f1e4fbdf7000000000000000000000000000000000000000000000000000000008152600401610b019190611b51565b60405180910390fd5b610b1381610ee9565b50565b5f7f01ffc9a7000000000000000000000000000000000000000000000000000000007bffffffffffffffffffffffffffffffffffffffffffffffffffffffff1916827bffffffffffffffffffffffffffffffffffffffffffffffffffffffff1916149050919050565b5f5f610b8a83611494565b90505f73ffffffffffffffffffffffffffffffffffffffff168173ffffffffffffffffffffffffffffffffffffffff1603610bfc57826040517f7e273289000000000000000000000000000000000000000000000000000000008152600401610bf39190611ca6565b60405180910390fd5b80915050919050565b5f60045f8381526020019081526020015f205f9054906101000a900473ffffffffffffffffffffffffffffffffffffffff169050919050565b5f33905090565b610c5283838360016114cd565b505050565b5f5f610c6284611494565b90505f73ffffffffffffffffffffffffffffffffffffffff168373ffffffffffffffffffffffffffffffffffffffff1614610ca357610ca281848661168c565b5b5f73ffffffffffffffffffffffffffffffffffffffff168173ffffffffffffffffffffffffffffffffffffffff1614610d2e57610ce25f855f5f6114cd565b600160035f8373ffffffffffffffffffffffffffffffffffffffff1673ffffffffffffffffffffffffffffffffffffffff1681526020019081526020015f205f82825403925050819055505b5f73ffffffffffffffffffffffffffffffffffffffff168573ffffffffffffffffffffffffffffffffffffffff1614610dad57600160035f8773ffffffffffffffffffffffffffffffffffffffff1673ffffffffffffffffffffffffffffffffffffffff1681526020019081526020015f205f82825401925050819055505b8460025f8681526020019081526020015f205f6101000a81548173ffffffffffffffffffffffffffffffffffffffff021916908373ffffffffffffffffffffffffffffffffffffffff160217905550838573ffffffffffffffffffffffffffffffffffffffff168273ffffffffffffffffffffffffffffffffffffffff167fddf252ad1be2c89b69c2b068fc378daa952ba7f163c4a11628f55a4df523b3ef60405160405180910390a4809150509392505050565b610e6a610c3e565b73ffffffffffffffffffffffffffffffffffffffff16610e8861080d565b73ffffffffffffffffffffffffffffffffffffffff1614610ee757610eab610c3e565b6040517f118cdaa7000000000000000000000000000000000000000000000000000000008152600401610ede9190611b51565b60405180910390fd5b565b5f60065f9054906101000a900473ffffffffffffffffffffffffffffffffffffffff1690508160065f6101000a81548173ffffffffffffffffffffffffffffffffffffffff021916908373ffffffffffffffffffffffffffffffffffffffff1602179055508173ffffffffffffffffffffffffffffffffffffffff168173ffffffffffffffffffffffffffffffffffffffff167f8be0079c531659141344cd1fd0a4f28419497f9722a3daafe3b4186f6b6457e060405160405180910390a35050565b5f73ffffffffffffffffffffffffffffffffffffffff168273ffffffffffffffffffffffffffffffffffffffff160361101c57816040517f5b08ba180000000000000000000000000000000000000000000000000000000081526004016110139190611b51565b60405180910390fd5b8060055f8573ffffffffffffffffffffffffffffffffffffffff1673ffffffffffffffffffffffffffffffffffffffff1681526020019081526020015f205f8473ffffffffffffffffffffffffffffffffffffffff1673ffffffffffffffffffffffffffffffffffffffff1681526020019081526020015f205f6101000a81548160ff0219169083151502179055508173ffffffffffffffffffffffffffffffffffffffff168373ffffffffffffffffffffffffffffffffffffffff167f17307eab39ab6107e8899845ad3d59bd9653f200f220920489ca2b5937696c31836040516111089190611a0b565b60405180910390a3505050565b5f8373ffffffffffffffffffffffffffffffffffffffff163b11156112ba578273ffffffffffffffffffffffffffffffffffffffff1663150b7a02868685856040518563ffffffff1660e01b81526004016111739493929190612466565b6020604051808303815f875af19250505080156111ae57506040513d601f19601f820116820180604052508101906111ab91906124c4565b60015b61122f573d805f81146111dc576040519150601f19603f3d011682016040523d82523d5f602084013e6111e1565b606091505b505f81510361122757836040517f64a0ae9200000000000000000000000000000000000000000000000000000000815260040161121e9190611b51565b60405180910390fd5b805181602001fd5b63150b7a0260e01b7bffffffffffffffffffffffffffffffffffffffffffffffffffffffff1916817bffffffffffffffffffffffffffffffffffffffffffffffffffffffff1916146112b857836040517f64a0ae920000000000000000000000000000000000000000000000000000000081526004016112af9190611b51565b60405180910390fd5b505b5050505050565b606060405180602001604052805f815250905090565b60605f60016112e58461174f565b0190505f8167ffffffffffffffff81111561130357611302611d2f565b5b6040519080825280601f01601f1916602001820160405280156113355781602001600182028036833780820191505090505b5090505f82602001820190505b600115611396578080600190039150507f3031323334353637383961626364656600000000000000000000000000000000600a86061a8153600a858161138b5761138a6124ef565b5b0494505f8503611342575b819350505050919050565b5f73ffffffffffffffffffffffffffffffffffffffff168273ffffffffffffffffffffffffffffffffffffffff1603611411575f6040517f64a0ae920000000000000000000000000000000000000000000000000000000081526004016114089190611b51565b60405180910390fd5b5f61141d83835f610c57565b90505f73ffffffffffffffffffffffffffffffffffffffff168173ffffffffffffffffffffffffffffffffffffffff161461148f575f6040517f73c6ac6e0000000000000000000000000000000000000000000000000000000081526004016114869190611b51565b60405180910390fd5b505050565b5f60025f8381526020019081526020015f205f9054906101000a900473ffffffffffffffffffffffffffffffffffffffff169050919050565b808061150557505f73ffffffffffffffffffffffffffffffffffffffff168273ffffffffffffffffffffffffffffffffffffffff1614155b15611637575f61151484610b7f565b90505f73ffffffffffffffffffffffffffffffffffffffff168373ffffffffffffffffffffffffffffffffffffffff161415801561157e57508273ffffffffffffffffffffffffffffffffffffffff168173ffffffffffffffffffffffffffffffffffffffff1614155b8015611591575061158f8184610a04565b155b156115d357826040517fa9fbf51f0000000000000000000000000000000000000000000000000000000081526004016115ca9190611b51565b60405180910390fd5b811561163557838573ffffffffffffffffffffffffffffffffffffffff168273ffffffffffffffffffffffffffffffffffffffff167f8c5be1e5ebec7d5bd14f71427d1e84f3dd0314c0f7b2291e5b200ac8c7c3b92560405160405180910390a45b505b8360045f8581526020019081526020015f205f6101000a81548173ffffffffffffffffffffffffffffffffffffffff021916908373ffffffffffffffffffffffffffffffffffffffff16021790555050505050565b6116978383836118a0565b61174a575f73ffffffffffffffffffffffffffffffffffffffff168373ffffffffffffffffffffffffffffffffffffffff160361170b57806040517f7e2732890000000000000000000000000000000000000000000000000000000081526004016117029190611ca6565b60405180910390fd5b81816040517f177e802f00000000000000000000000000000000000000000000000000000000815260040161174192919061251c565b60405180910390fd5b505050565b5f5f5f90507a184f03e93ff9f4daa797ed6e38ed64bf6a1f01000000000000000083106117ab577a184f03e93ff9f4daa797ed6e38ed64bf6a1f01000000000000000083816117a1576117a06124ef565b5b0492506040810190505b6d04ee2d6d415b85acef810000000083106117e8576d04ee2d6d415b85acef810000000083816117de576117dd6124ef565b5b0492506020810190505b662386f26fc10000831061181757662386f26fc10000838161180d5761180c6124ef565b5b0492506010810190505b6305f5e1008310611840576305f5e1008381611836576118356124ef565b5b0492506008810190505b612710831061186557612710838161185b5761185a6124ef565b5b0492506004810190505b60648310611888576064838161187e5761187d6124ef565b5b0492506002810190505b600a8310611897576001810190505b80915050919050565b5f5f73ffffffffffffffffffffffffffffffffffffffff168373ffffffffffffffffffffffffffffffffffffffff161415801561195757508273ffffffffffffffffffffffffffffffffffffffff168473ffffffffffffffffffffffffffffffffffffffff16148061191857506119178484610a04565b5b8061195657508273ffffffffffffffffffffffffffffffffffffffff1661193e83610c05565b73ffffffffffffffffffffffffffffffffffffffff16145b5b90509392505050565b5f604051905090565b5f5ffd5b5f5ffd5b5f7fffffffff0000000000000000000000000000000000000000000000000000000082169050919050565b6119a581611971565b81146119af575f5ffd5b50565b5f813590506119c08161199c565b92915050565b5f602082840312156119db576119da611969565b5b5f6119e8848285016119b2565b91505092915050565b5f8115159050919050565b611a05816119f1565b82525050565b5f602082019050611a1e5f8301846119fc565b92915050565b5f81519050919050565b5f82825260208201905092915050565b8281835e5f83830152505050565b5f601f19601f8301169050919050565b5f611a6682611a24565b611a708185611a2e565b9350611a80818560208601611a3e565b611a8981611a4c565b840191505092915050565b5f6020820190508181035f830152611aac8184611a5c565b905092915050565b5f819050919050565b611ac681611ab4565b8114611ad0575f5ffd5b50565b5f81359050611ae181611abd565b92915050565b5f60208284031215611afc57611afb611969565b5b5f611b0984828501611ad3565b91505092915050565b5f73ffffffffffffffffffffffffffffffffffffffff82169050919050565b5f611b3b82611b12565b9050919050565b611b4b81611b31565b82525050565b5f602082019050611b645f830184611b42565b92915050565b611b7381611b31565b8114611b7d575f5ffd5b50565b5f81359050611b8e81611b6a565b92915050565b5f5f60408385031215611baa57611ba9611969565b5b5f611bb785828601611b80565b9250506020611bc885828601611ad3565b9150509250929050565b611bdb81611ab4565b82525050565b5f608082019050611bf45f830187611bd2565b8181036020830152611c068186611a5c565b9050611c156040830185611bd2565b611c226060830184611bd2565b95945050505050565b5f5f5f60608486031215611c4257611c41611969565b5b5f611c4f86828701611b80565b9350506020611c6086828701611b80565b9250506040611c7186828701611ad3565b9150509250925092565b5f60208284031215611c9057611c8f611969565b5b5f611c9d84828501611b80565b91505092915050565b5f602082019050611cb95f830184611bd2565b92915050565b611cc8816119f1565b8114611cd2575f5ffd5b50565b5f81359050611ce381611cbf565b92915050565b5f5f60408385031215611cff57611cfe611969565b5b5f611d0c85828601611b80565b9250506020611d1d85828601611cd5565b9150509250929050565b5f5ffd5b5f5ffd5b7f4e487b71000000000000000000000000000000000000000000000000000000005f52604160045260245ffd5b611d6582611a4c565b810181811067ffffffffffffffff82111715611d8457611d83611d2f565b5b80604052505050565b5f611d96611960565b9050611da28282611d5c565b919050565b5f67ffffffffffffffff821115611dc157611dc0611d2f565b5b611dca82611a4c565b9050602081019050919050565b828183375f83830152505050565b5f611df7611df284611da7565b611d8d565b905082815260208101848484011115611e1357611e12611d2b565b5b611e1e848285611dd7565b509392505050565b5f82601f830112611e3a57611e39611d27565b5b8135611e4a848260208601611de5565b91505092915050565b5f5f5f5f60808587031215611e6b57611e6a611969565b5b5f611e7887828801611b80565b9450506020611e8987828801611b80565b9350506040611e9a87828801611ad3565b925050606085013567ffffffffffffffff811115611ebb57611eba61196d565b5b611ec787828801611e26565b91505092959194509250565b5f67ffffffffffffffff821115611eed57611eec611d2f565b5b611ef682611a4c565b9050602081019050919050565b5f611f15611f1084611ed3565b611d8d565b905082815260208101848484011115611f3157611f30611d2b565b5b611f3c848285611dd7565b509392505050565b5f82601f830112611f5857611f57611d27565b5b8135611f68848260208601611f03565b91505092915050565b5f5f5f5f5f60a08688031215611f8a57611f89611969565b5b5f611f9788828901611b80565b9550506020611fa888828901611ad3565b945050604086013567ffffffffffffffff811115611fc957611fc861196d565b5b611fd588828901611f44565b9350506060611fe688828901611ad3565b9250506080611ff788828901611ad3565b9150509295509295909350565b5f5f6040838503121561201a57612019611969565b5b5f61202785828601611b80565b925050602061203885828601611b80565b9150509250929050565b7f4e487b71000000000000000000000000000000000000000000000000000000005f52602260045260245ffd5b5f600282049050600182168061208657607f821691505b60208210810361209957612098612042565b5b50919050565b5f6060820190506120b25f830186611b42565b6120bf6020830185611bd2565b6120cc6040830184611b42565b949350505050565b5f81905092915050565b5f6120e882611a24565b6120f281856120d4565b9350612102818560208601611a3e565b80840191505092915050565b5f61211982856120de565b915061212582846120de565b91508190509392505050565b7f4e487b71000000000000000000000000000000000000000000000000000000005f52601160045260245ffd5b5f61216882611ab4565b91507fffffffffffffffffffffffffffffffffffffffffffffffffffffffffffffffff820361219a57612199612131565b5b600182019050919050565b5f819050815f5260205f209050919050565b5f6020601f8301049050919050565b5f82821b905092915050565b5f600883026122017fffffffffffffffffffffffffffffffffffffffffffffffffffffffffffffffff826121c6565b61220b86836121c6565b95508019841693508086168417925050509392505050565b5f819050919050565b5f61224661224161223c84611ab4565b612223565b611ab4565b9050919050565b5f819050919050565b61225f8361222c565b61227361226b8261224d565b8484546121d2565b825550505050565b5f5f905090565b61228a61227b565b612295818484612256565b505050565b5b818110156122b8576122ad5f82612282565b60018101905061229b565b5050565b601f8211156122fd576122ce816121a5565b6122d7846121b7565b810160208510156122e6578190505b6122fa6122f2856121b7565b83018261229a565b50505b505050565b5f82821c905092915050565b5f61231d5f1984600802612302565b1980831691505092915050565b5f612335838361230e565b9150826002028217905092915050565b61234e82611a24565b67ffffffffffffffff81111561236757612366611d2f565b5b612371825461206f565b61237c8282856122bc565b5f60209050601f8311600181146123ad575f841561239b578287015190505b6123a5858261232a565b86555061240c565b601f1984166123bb866121a5565b5f5b828110156123e2578489015182556001820191506020850194506020810190506123bd565b868310156123ff57848901516123fb601f89168261230e565b8355505b6001600288020188555050505b505050505050565b5f81519050919050565b5f82825260208201905092915050565b5f61243882612414565b612442818561241e565b9350612452818560208601611a3e565b61245b81611a4c565b840191505092915050565b5f6080820190506124795f830187611b42565b6124866020830186611b42565b6124936040830185611bd2565b81810360608301526124a5818461242e565b905095945050505050565b5f815190506124be8161199c565b92915050565b5f602082840312156124d9576124d8611969565b5b5f6124e6848285016124b0565b91505092915050565b7f4e487b71000000000000000000000000000000000000000000000000000000005f52601260045260245ffd5b5f60408201905061252f5f830185611b42565b61253c6020830184611bd2565b939250505056fea26469706673582212202ebf0281530dbac0d1feaac53fe12d508dececb68673c744d353777933c312d464736f6c634300081c0033","linkReferences":{}},"methodIdentifiers":{"approve(address,uint256)":"095ea7b3","balanceOf(address)":"70a08231","getApproved(uint256)":"081812fc","isApprovedForAll(address,address)":"e985e9c5","mint(address,uint256,string,uint256,uint256)":"e8e7e539","name()":"06fdde03","nextTokenId()":"75794a3c","owner()":"8da5cb5b","ownerOf(uint256)":"6352211e","renounceOwnership()":"715018a6","results(uint256)":"1b0c27da","safeTransferFrom(address,address,uint256)":"42842e0e","safeTransferFrom(address,address,uint256,bytes)":"b88d4fde","setApprovalForAll(address,bool)":"a22cb465","supportsInterface(bytes4)":"01ffc9a7","symbol()":"95d89b41","tokenURI(uint256)":"c87b56dd","transferFrom(address,address,uint256)":"23b872dd","transferOwnership(address)":"f2fde38b"},"id":37}