{"abi":[{"type":"constructor","inputs":[{"name":"_vegaToken","type":"address","internalType":"contract IERC20"},{"name":"_nftContract","type":"address","internalType":"contract IVotingResultNFT"}],"stateMutability":"nonpayable"},{"type":"function","name":"MAX_STAKE_PERIOD","inputs":[],"outputs":[{"name":"","type":"uint256","internalType":"uint256"}],"stateMutability":"view"},{"type":"function","name":"concludeVote","inputs":[{"name":"_voteId","type":"uint256","internalType":"uint256"}],"outputs":[],"stateMutability":"nonpayable"},{"type":"function","name":"createVote","inputs":[{"name":"_description","type":"string","internalType":"string"},{"name":"_duration","type":"uint256","internalType":"uint256"},{"name":"_threshold","type":"uint256","internalType":"uint256"}],"outputs":[],"stateMutability":"nonpayable"},{"type":"function","name":"getVote","inputs":[{"name":"_voteId","type":"uint256","internalType":"uint256"}],"outputs":[{"name":"id","type":"uint256","internalType":"uint256"},{"name":"description","type":"string","internalType":"string"},{"name":"deadline","type":"uint256","internalType":"uint256"},{"name":"threshold","type":"uint256","internalType":"uint256"},{"name":"yesVotes","type":"uint256","internalType":"uint256"},{"name":"noVotes","type":"uint256","internalType":"uint256"},{"name":"concluded","type":"bool","internalType":"bool"}],"stateMutability":"view"},{"type":"function","name":"nftContract","inputs":[],"outputs":[{"name":"","type":"address","internalType":"contract IVotingResultNFT"}],"stateMutability":"view"},{"type":"function","name":"owner","inputs":[],"outputs":[{"name":"","type":"address","internalType":"address"}],"stateMutability":"view"},{"type":"function","name":"renounceOwnership","inputs":[],"outputs":[],"stateMutability":"nonpayable"},{"type":"function","name":"transferOwnership","inputs":[{"name":"newOwner","type":"address","internalType":"address"}],"outputs":[],"stateMutability":"nonpayable"},{"type":"function","name":"vegaToken","inputs":[],"outputs":[{"name":"","type":"address","internalType":"contract IERC20"}],"stateMutability":"view"},{"type":"function","name":"vote","inputs":[{"name":"_voteId","type":"uint256","internalType":"uint256"},{"name":"_voteYes","type":"bool","internalType":"bool"},{"name":"_stakeAmount","type":"uint256","internalType":"uint256"},{"name":"_stakePeriod","type":"uint256","internalType":"uint256"}],"outputs":[],"stateMutability":"nonpayable"},{"type":"function","name":"voteCount","inputs":[],"outputs":[{"name":"","type":"uint256","internalType":"uint256"}],"stateMutability":"view"},{"type":"event","name":"OwnershipTransferred","inputs":[{"name":"previousOwner","type":"address","indexed":true,"internalType":"address"},{"name":"newOwner","type":"address","indexed":true,"internalType":"address"}],"anonymous":false},{"type":"event","name":"VoteConcluded","inputs":[{"name":"voteId","type":"uint256","indexed":true,"internalType":"uint256"},{"name":"yesVotes","type":"uint256","indexed":false,"internalType":"uint256"},{"name":"noVotes","type":"uint256","indexed":false,"internalType":"uint256"}],"anonymous":false},{"type":"event","name":"VoteCreated","inputs":[{"name":"voteId","type":"uint256","indexed":true,"internalType":"uint256"},{"name":"description","type":"string","indexed":false,"internalType":"string"},{"name":"deadline","type":"uint256","indexed":false,"internalType":"uint256"},{"name":"threshold","type":"uint256","indexed":false,"internalType":"uint256"}],"anonymous":false},{"type":"event","name":"Voted","inputs":[{"name":"voteId","type":"uint256","indexed":true,"internalType":"uint256"},{"name":"voter","type":"address","indexed":true,"internalType":"address"},{"name":"voteYes","type":"bool","indexed":false,"internalType":"bool"},{"name":"stakeAmount","type":"uint256","indexed":false,"internalType":"uint256"},{"name":"stakePeriod","type":"uint256","indexed":false,"internalType":"uint256"},{"name":"votingPower","type":"uint256","indexed":false,"internalType":"uint256"}],"anonymous":false},{"type":"error","name":"OwnableInvalidOwner","inputs":[{"name":"owner","type":"address","internalType":"address"}]},{"type":"error","name":"OwnableUnauthorizedAccount","inputs":[{"name":"account","type":"address","internalType":"address"}]}],"bytecode":{"object":"0x608060405234801561000f575f5ffd5b50604051611cbb380380611cbb833981810160405281019061003191906102a4565b335f73ffffffffffffffffffffffffffffffffffffffff168173ffffffffffffffffffffffffffffffffffffffff16036100a2575f6040517f1e4fbdf700000000000000000000000000000000000000000000000000000000815260040161009991906102f1565b60405180910390fd5b6100b18161013960201b60201c565b508160015f6101000a81548173ffffffffffffffffffffffffffffffffffffffff021916908373ffffffffffffffffffffffffffffffffffffffff1602179055508060025f6101000a81548173ffffffffffffffffffffffffffffffffffffffff021916908373ffffffffffffffffffffffffffffffffffffffff160217905550505061030a565b5f5f5f9054906101000a900473ffffffffffffffffffffffffffffffffffffffff169050815f5f6101000a81548173ffffffffffffffffffffffffffffffffffffffff021916908373ffffffffffffffffffffffffffffffffffffffff1602179055508173ffffffffffffffffffffffffffffffffffffffff168173ffffffffffffffffffffffffffffffffffffffff167f8be0079c531659141344cd1fd0a4f28419497f9722a3daafe3b4186f6b6457e060405160405180910390a35050565b5f5ffd5b5f73ffffffffffffffffffffffffffffffffffffffff82169050919050565b5f610227826101fe565b9050919050565b5f6102388261021d565b9050919050565b6102488161022e565b8114610252575f5ffd5b50565b5f815190506102638161023f565b92915050565b5f6102738261021d565b9050919050565b61028381610269565b811461028d575f5ffd5b50565b5f8151905061029e8161027a565b92915050565b5f5f604083850312156102ba576102b96101fa565b5b5f6102c785828601610255565b92505060206102d885828601610290565b9150509250929050565b6102eb8161021d565b82525050565b5f6020820190506103045f8301846102e2565b92915050565b6119a4806103175f395ff3fe608060405234801561000f575f5ffd5b50600436106100a7575f3560e01c8063a7ef92e71161006f578063a7ef92e714610143578063b4a4808c14610161578063c63840711461017d578063d56d229d1461019b578063f2fde38b146101b9578063f56cb3b3146101d5576100a7565b8063029fc3e8146100ab5780635a55c1f0146100c7578063715018a6146100fd5780638da5cb5b146101075780638dcbd7aa14610125575b5f5ffd5b6100c560048036038101906100c09190610d3d565b6101f1565b005b6100e160048036038101906100dc9190610da9565b610309565b6040516100f49796959493929190610e5d565b60405180910390f35b6101056103f6565b005b61010f610409565b60405161011c9190610f10565b60405180910390f35b61012d610430565b60405161013a9190610f29565b60405180910390f35b61014b610438565b6040516101589190610f9d565b60405180910390f35b61017b60048036038101906101769190610da9565b61045d565b005b61018561062e565b6040516101929190610f29565b60405180910390f35b6101a3610634565b6040516101b09190610fd6565b60405180910390f35b6101d360048036038101906101ce9190611019565b610659565b005b6101ef60048036038101906101ea919061106e565b6106dd565b005b6101f9610a6e565b630784ce00821115610240576040517f08c379a000000000000000000000000000000000000000000000000000000000815260040161023790611142565b60405180910390fd5b60035f8154809291906102529061118d565b91905055505f60045f60035481526020019081526020015f209050600354815f01819055508381600101908161028891906113c8565b5082426102959190611497565b81600201819055508181600301819055505f816006015f6101000a81548160ff0219169083151502179055506003547f6912e5abe531ca5f3b6f973f97278ab6731cdec0178a7b3c2c7a5822a3f1732b858360020154856040516102fb939291906114ca565b60405180910390a250505050565b5f60605f5f5f5f5f5f60045f8a81526020019081526020015f209050805f0154816001018260020154836003015484600401548560050154866006015f9054906101000a900460ff1685805461035e90611201565b80601f016020809104026020016040519081016040528092919081815260200182805461038a90611201565b80156103d55780601f106103ac576101008083540402835291602001916103d5565b820191905f5260205f20905b8154815290600101906020018083116103b857829003601f168201915b50505050509550975097509750975097509750975050919395979092949650565b6103fe610a6e565b6104075f610af5565b565b5f5f5f9054906101000a900473ffffffffffffffffffffffffffffffffffffffff16905090565b630784ce0081565b60015f9054906101000a900473ffffffffffffffffffffffffffffffffffffffff1681565b5f60045f8381526020019081526020015f209050806006015f9054906101000a900460ff16156104c2576040517f08c379a00000000000000000000000000000000000000000000000000000000081526004016104b990611550565b60405180910390fd5b8060020154421015806104ec57508060030154816005015482600401546104e99190611497565b10155b61052b576040517f08c379a0000000000000000000000000000000000000000000000000000000008152600401610522906115b8565b60405180910390fd5b6001816006015f6101000a81548160ff021916908315150217905550817f10d6c311a03abea103927df3a727e544a0f3323bef8d507f1810f82a7c06adac826004015483600501546040516105819291906115d6565b60405180910390a260025f9054906101000a900473ffffffffffffffffffffffffffffffffffffffff1673ffffffffffffffffffffffffffffffffffffffff1663e8e7e5396105ce610409565b8484600101856004015486600501546040518663ffffffff1660e01b81526004016105fd95949392919061167e565b5f604051808303815f87803b158015610614575f5ffd5b505af1158015610626573d5f5f3e3d5ffd5b505050505050565b60035481565b60025f9054906101000a900473ffffffffffffffffffffffffffffffffffffffff1681565b610661610a6e565b5f73ffffffffffffffffffffffffffffffffffffffff168173ffffffffffffffffffffffffffffffffffffffff16036106d1575f6040517f1e4fbdf70000000000000000000000000000000000000000000000000000000081526004016106c89190610f10565b60405180910390fd5b6106da81610af5565b50565b630784ce00811115610724576040517f08c379a000000000000000000000000000000000000000000000000000000000815260040161071b90611720565b60405180910390fd5b5f60045f8681526020019081526020015f2090508060020154421061077e576040517f08c379a000000000000000000000000000000000000000000000000000000000815260040161077590611788565b60405180910390fd5b806006015f9054906101000a900460ff16156107cf576040517f08c379a00000000000000000000000000000000000000000000000000000000081526004016107c690611550565b60405180910390fd5b806007015f3373ffffffffffffffffffffffffffffffffffffffff1673ffffffffffffffffffffffffffffffffffffffff1681526020019081526020015f205f9054906101000a900460ff161561085b576040517f08c379a0000000000000000000000000000000000000000000000000000000008152600401610852906117f0565b60405180910390fd5b60015f9054906101000a900473ffffffffffffffffffffffffffffffffffffffff1673ffffffffffffffffffffffffffffffffffffffff166323b872dd3330866040518463ffffffff1660e01b81526004016108b99392919061180e565b6020604051808303815f875af11580156108d5573d5f5f3e3d5ffd5b505050506040513d601f19601f820116820180604052508101906108f99190611857565b610938576040517f08c379a000000000000000000000000000000000000000000000000000000000815260040161092f906118cc565b60405180910390fd5b5f828361094591906118ea565b8461095091906118ea565b905084156109775780826004015f82825461096b9190611497565b92505081905550610992565b80826005015f82825461098a9190611497565b925050819055505b6001826007015f3373ffffffffffffffffffffffffffffffffffffffff1673ffffffffffffffffffffffffffffffffffffffff1681526020019081526020015f205f6101000a81548160ff0219169083151502179055503373ffffffffffffffffffffffffffffffffffffffff16867f2c707893af580790816fd02f801c18abd3c09cbcd05759060a0c85a0072faf7c87878786604051610a36949392919061192b565b60405180910390a3816003015482600501548360040154610a579190611497565b10610a6657610a658661045d565b5b505050505050565b610a76610bb6565b73ffffffffffffffffffffffffffffffffffffffff16610a94610409565b73ffffffffffffffffffffffffffffffffffffffff1614610af357610ab7610bb6565b6040517f118cdaa7000000000000000000000000000000000000000000000000000000008152600401610aea9190610f10565b60405180910390fd5b565b5f5f5f9054906101000a900473ffffffffffffffffffffffffffffffffffffffff169050815f5f6101000a81548173ffffffffffffffffffffffffffffffffffffffff021916908373ffffffffffffffffffffffffffffffffffffffff1602179055508173ffffffffffffffffffffffffffffffffffffffff168173ffffffffffffffffffffffffffffffffffffffff167f8be0079c531659141344cd1fd0a4f28419497f9722a3daafe3b4186f6b6457e060405160405180910390a35050565b5f33905090565b5f604051905090565b5f5ffd5b5f5ffd5b5f5ffd5b5f5ffd5b5f601f19601f8301169050919050565b7f4e487b71000000000000000000000000000000000000000000000000000000005f52604160045260245ffd5b610c1c82610bd6565b810181811067ffffffffffffffff82111715610c3b57610c3a610be6565b5b80604052505050565b5f610c4d610bbd565b9050610c598282610c13565b919050565b5f67ffffffffffffffff821115610c7857610c77610be6565b5b610c8182610bd6565b9050602081019050919050565b828183375f83830152505050565b5f610cae610ca984610c5e565b610c44565b905082815260208101848484011115610cca57610cc9610bd2565b5b610cd5848285610c8e565b509392505050565b5f82601f830112610cf157610cf0610bce565b5b8135610d01848260208601610c9c565b91505092915050565b5f819050919050565b610d1c81610d0a565b8114610d26575f5ffd5b50565b5f81359050610d3781610d13565b92915050565b5f5f5f60608486031215610d5457610d53610bc6565b5b5f84013567ffffffffffffffff811115610d7157610d70610bca565b5b610d7d86828701610cdd565b9350506020610d8e86828701610d29565b9250506040610d9f86828701610d29565b9150509250925092565b5f60208284031215610dbe57610dbd610bc6565b5b5f610dcb84828501610d29565b91505092915050565b610ddd81610d0a565b82525050565b5f81519050919050565b5f82825260208201905092915050565b8281835e5f83830152505050565b5f610e1582610de3565b610e1f8185610ded565b9350610e2f818560208601610dfd565b610e3881610bd6565b840191505092915050565b5f8115159050919050565b610e5781610e43565b82525050565b5f60e082019050610e705f83018a610dd4565b8181036020830152610e828189610e0b565b9050610e916040830188610dd4565b610e9e6060830187610dd4565b610eab6080830186610dd4565b610eb860a0830185610dd4565b610ec560c0830184610e4e565b98975050505050505050565b5f73ffffffffffffffffffffffffffffffffffffffff82169050919050565b5f610efa82610ed1565b9050919050565b610f0a81610ef0565b82525050565b5f602082019050610f235f830184610f01565b92915050565b5f602082019050610f3c5f830184610dd4565b92915050565b5f819050919050565b5f610f65610f60610f5b84610ed1565b610f42565b610ed1565b9050919050565b5f610f7682610f4b565b9050919050565b5f610f8782610f6c565b9050919050565b610f9781610f7d565b82525050565b5f602082019050610fb05f830184610f8e565b92915050565b5f610fc082610f6c565b9050919050565b610fd081610fb6565b82525050565b5f602082019050610fe95f830184610fc7565b92915050565b610ff881610ef0565b8114611002575f5ffd5b50565b5f8135905061101381610fef565b92915050565b5f6020828403121561102e5761102d610bc6565b5b5f61103b84828501611005565b91505092915050565b61104d81610e43565b8114611057575f5ffd5b50565b5f8135905061106881611044565b92915050565b5f5f5f5f6080858703121561108657611085610bc6565b5b5f61109387828801610d29565b94505060206110a48782880161105a565b93505060406110b587828801610d29565b92505060606110c687828801610d29565b91505092959194509250565b7f4475726174696f6e2065786365656473206d6178696d756d20616c6c6f7765645f8201527f20706572696f6400000000000000000000000000000000000000000000000000602082015250565b5f61112c602783610ded565b9150611137826110d2565b604082019050919050565b5f6020820190508181035f83015261115981611120565b9050919050565b7f4e487b71000000000000000000000000000000000000000000000000000000005f52601160045260245ffd5b5f61119782610d0a565b91507fffffffffffffffffffffffffffffffffffffffffffffffffffffffffffffffff82036111c9576111c8611160565b5b600182019050919050565b7f4e487b71000000000000000000000000000000000000000000000000000000005f52602260045260245ffd5b5f600282049050600182168061121857607f821691505b60208210810361122b5761122a6111d4565b5b50919050565b5f819050815f5260205f209050919050565b5f6020601f8301049050919050565b5f82821b905092915050565b5f6008830261128d7fffffffffffffffffffffffffffffffffffffffffffffffffffffffffffffffff82611252565b6112978683611252565b95508019841693508086168417925050509392505050565b5f6112c96112c46112bf84610d0a565b610f42565b610d0a565b9050919050565b5f819050919050565b6112e2836112af565b6112f66112ee826112d0565b84845461125e565b825550505050565b5f5f905090565b61130d6112fe565b6113188184846112d9565b505050565b5b8181101561133b576113305f82611305565b60018101905061131e565b5050565b601f8211156113805761135181611231565b61135a84611243565b81016020851015611369578190505b61137d61137585611243565b83018261131d565b50505b505050565b5f82821c905092915050565b5f6113a05f1984600802611385565b1980831691505092915050565b5f6113b88383611391565b9150826002028217905092915050565b6113d182610de3565b67ffffffffffffffff8111156113ea576113e9610be6565b5b6113f48254611201565b6113ff82828561133f565b5f60209050601f831160018114611430575f841561141e578287015190505b61142885826113ad565b86555061148f565b601f19841661143e86611231565b5f5b8281101561146557848901518255600182019150602085019450602081019050611440565b86831015611482578489015161147e601f891682611391565b8355505b6001600288020188555050505b505050505050565b5f6114a182610d0a565b91506114ac83610d0a565b92508282019050808211156114c4576114c3611160565b5b92915050565b5f6060820190508181035f8301526114e28186610e0b565b90506114f16020830185610dd4565b6114fe6040830184610dd4565b949350505050565b7f566f746520616c726561647920636f6e636c75646564000000000000000000005f82015250565b5f61153a601683610ded565b915061154582611506565b602082019050919050565b5f6020820190508181035f8301526115678161152e565b9050919050565b7f566f74696e67206e6f7420656e646564207965740000000000000000000000005f82015250565b5f6115a2601483610ded565b91506115ad8261156e565b602082019050919050565b5f6020820190508181035f8301526115cf81611596565b9050919050565b5f6040820190506115e95f830185610dd4565b6115f66020830184610dd4565b9392505050565b5f815461160981611201565b6116138186610ded565b9450600182165f811461162d576001811461164357611675565b60ff198316865281151560200286019350611675565b61164c85611231565b5f5b8381101561166d5781548189015260018201915060208101905061164e565b808801955050505b50505092915050565b5f60a0820190506116915f830188610f01565b61169e6020830187610dd4565b81810360408301526116b081866115fd565b90506116bf6060830185610dd4565b6116cc6080830184610dd4565b9695505050505050565b7f5374616b6520706572696f6420746f6f206c6f6e6700000000000000000000005f82015250565b5f61170a601583610ded565b9150611715826116d6565b602082019050919050565b5f6020820190508181035f830152611737816116fe565b9050919050565b7f566f74696e6720706572696f642068617320656e6465640000000000000000005f82015250565b5f611772601783610ded565b915061177d8261173e565b602082019050919050565b5f6020820190508181035f83015261179f81611766565b9050919050565b7f416464726573732068617320616c726561647920766f746564000000000000005f82015250565b5f6117da601983610ded565b91506117e5826117a6565b602082019050919050565b5f6020820190508181035f830152611807816117ce565b9050919050565b5f6060820190506118215f830186610f01565b61182e6020830185610f01565b61183b6040830184610dd4565b949350505050565b5f8151905061185181611044565b92915050565b5f6020828403121561186c5761186b610bc6565b5b5f61187984828501611843565b91505092915050565b7f546f6b656e207472616e73666572206661696c656400000000000000000000005f82015250565b5f6118b6601583610ded565b91506118c182611882565b602082019050919050565b5f6020820190508181035f8301526118e3816118aa565b9050919050565b5f6118f482610d0a565b91506118ff83610d0a565b925082820261190d81610d0a565b9150828204841483151761192457611923611160565b5b5092915050565b5f60808201905061193e5f830187610e4e565b61194b6020830186610dd4565b6119586040830185610dd4565b6119656060830184610dd4565b9594505050505056fea26469706673582212202e35ec19ebc11b942c033c49e52d70238b6652a96b723a5e692742cff399b32f64736f6c634300081c0033","linkReferences":{}},"methodIdentifiers":{"MAX_STAKE_PERIOD()":"8dcbd7aa","concludeVote(uint256)":"b4a4808c","createVote(string,uint256,uint256)":"029fc3e8","getVote(uint256)":"5a55c1f0","nftContract()":"d56d229d","owner()":"8da5cb5b","renounceOwnership()":"715018a6","transferOwnership(address)":"f2fde38b","vegaToken()":"a7ef92e7","vote(uint256,bool,uint256,uint256)":"f56cb3b3","voteCount()":"c6384071"},"id":36}